:020000040800F2
:1000000090080020A5020008ED3A000855350008C8
:10001000E93A00084D050008613C000800000000B6
:10002000000000000000000000000000F53A000899
:100030005D05000800000000F13A0008F93A0008E8
:10004000BF020008BF020008BF020008BF0200088C
:10005000BF020008BF020008BF020008BF0200087C
:10006000BF020008BF020008BF02000851050008D7
:10007000BF020008BF020008BF020008BF0200085C
:10008000BF020008BF020008AD030008BF0200085D
:10009000BF020008BF020008BF020008BF0200083C
:1000A000BF020008BF020008BF020008BF0200082C
:1000B000BF020008BF020008BF020008BF0200081C
:1000C000BF020008BF020008BF020008BF0200080C
:1000D000BF020008BF020008BF020008BF020008FC
:1000E000BF020008BF020008BF020008BF020008EC
:1000F000BF020008BF020008BF020008BF020008DC
:10010000BF020008BF020008BF020008BF020008CB
:10011000BF020008BF020008BF020008BF020008BB
:10012000BF020008BF020008BF020008BF020008AB
:10013000BF020008BF020008BF020008BF0200089B
:10014000BF020008BF020008BF020008BF0200088B
:10015000BF020008BF020008BF020008BF0200087B
:10016000BF020008BF020008BF020008BF0200086B
:10017000BF020008BF020008BF020008BF0200085B
:10018000BF020008BF020008BF020008BF0200084B
:10019000BF02000800000000BF020008BF02000804
:1001A000BF020008BF020008BF020008BF0200082B
:1001B000BF020008BF020008BF020008BF0200081B
:1001C000BF020008BF020008BF020008BF0200080B
:1001D000BF020008BF02000800F002F800F052F869
:1001E00014A696E8000CB244B344DA4501D100F0FD
:1001F00049F8BAE80F000FA696E83000A5EB040511
:1002000004EB0607AAEB0704A7F101074FEA15154F
:100210004FEA3414A4F10104AC4201D300F032F8E7
:1002200013F0010F18BFFB1A43F0010300F001F8AF
:10023000DBE71847703B0000903B0000103A24BFFA
:1002400078C878C1FAD8520724BF30C830C144BF3B
:1002500004680C6070470000704700000023002411
:1002600000250026103A28BF78C1FBD8520728BFC6
:1002700030C148BF0B6070471FB503F070FD1FBD54
:1002800010B510BD00F058F81146FFF7F5FF03F068
:10029000E9FC00F076F803B4FFF7F2FF03BC00F0CE
:1002A0007DF800000948804709480047FEE7FEE75F
:1002B000FEE7FEE7FEE7FEE7FEE7FEE7FEE7FEE716
:1002C00004480549054A064B70470000FD3A0008FE
:1002D000D90100089002002090080020900400201E
:1002E000900400204FF0000200B513469446964655
:1002F000203922BFA0E80C50A0E80C50B1F1200139
:10030000BFF4F7AF090728BFA0E80C5048BF0CC0E6
:100310005DF804EB890028BF40F8042B08BF704744
:1003200048BF20F8022B11F0804F18BF00F8012BB6
:100330007047704770477047754600F02BF8AE461F
:1003400005006946534620F00700854618B020B5E1
:10035000FFF7B6FFBDE820404FF000064FF0000762
:100360004FF000084FF0000BAC46ACE8C009ACE819
:10037000C009ACE8C009ACE8C00921F007018D460E
:10038000704710B50446AFF300802046BDE810402A
:10039000FFF781BF00487047100000200149182076
:1003A000ABBEFEE7260002007047000040F2780076
:1003B000C2F2000000F070BB0146806AC36DC26DDE
:1003C00013F0500F08D0D20648BF00F063BB406D59
:1003D000426B0846104700BF42F40071C1650168D6
:1003E0000B68CA681B0703D4910707D500F03EBB12
:1003F00012F4406FFAD1C9688904F7D4C16D21F4B1
:100400008071C165C16DC90448BF00F02FBBC16DCB
:1004100041F00101C16500F029BB0000806AC16D97
:1004200041F04001C165016E41F00401016600F038
:1004300031BB0000806A00F02BBB000070B582B0B9
:1004400004460020019021688A68D20711D14FF636
:10045000C076C7F6FF76886806F17F0210420BD09F
:10046000E06D40F01000E065206E40F00100206675
:10047000012002B070BD00BF88684FF4C1623040F7
:1004800040F00100886040F20010C5F20000814297
:1004900008BF4FF40272B1F1A04F08BF4FF40272CF
:1004A0001058000222D401F02BF921680A68D20703
:1004B00018D1054603E000BF0868C00712D188685C
:1004C000C00704D18868304040F00100886001F026
:1004D00017F9401B21680328EED30868C007EBD149
:1004E000BEE700BF002002B070BD00BF40F20800B0
:1004F000C2F20000006842F663518009C0F23E512A
:10050000A0FB0101880900EB40000C2101EB8000F9
:10051000019001980028C6D00198013801900198F7
:100520000028C0D001980138019001980028BAD065
:1005300001980138019001980028B4D00198013841
:10054000019001980028E7D1ADE70000FEE7000028
:1005500040F2E400C2F2000000F094BE70470000D8
:10056000EFF3108072B600BFFEE700007047000096
:10057000704700007047000070470000704700009F
:1005800090F85820012A04BF0220704770B582B04D
:10059000002201920092026840F2080CC5F2000CA1
:1005A000B2F1A04F0CF1F80508D040F20043C5F2BB
:1005B00000039A4234D10CF59F6300E02B469B6800
:1005C000946823435B072BD44FF4E063D1F800E039
:1005D000AA4208BF4FF44073B2F1A04F08BF4FF4D6
:1005E00040735CF80340BEF1000F24F4604425D052
:1005F0004D6890F8386042F4807245EA46352C43E5
:1006000040F20015C5F20005AA424CF8034027D17C
:10061000DCF80020DCF800412243D20748D129E071
:10062000C16D41F02001C1650121002280F85820F0
:1006300002B0BDE870400846704700BF42F48071C8
:1006400040F20012C5F2000291424CF803401BD167
:10065000DCF80010DCF800211143C90728D11DE0A7
:10066000DCF80044DCF80055DCF800262C4322437B
:10067000D2071DD15CF8032040F61F748968A2439D
:10068000114341EA0E010EE0DCF80024DCF80065BD
:10069000DCF8001632431143C90709D15CF8031096
:1006A00040F61F7291434CF803100021BDE700BFD4
:1006B0000021BAE7F0B581B00022009290F85820EE
:1006C000012A03D10221084601B0F0BD01230768C9
:1006D00080F85830BB685B0734D4D1E900351F2659
:1006E000C5F3012407EB8404226B05F01F05AE401F
:1006F000C3F38463B243AB401A432263BA68BB6856
:1007000002F0040203F00803D21840F0BC800A682B
:1007100007F114030426C2F34064D1F808E006EAA6
:10072000D25C53F82440C2F304550722AA40BEF11C
:10073000004F24EA02040BD143F80C401A6842F03F
:1007400000430DE0C16D41F02001C165012167E169
:100750000EFA05F2224343F80C201A6822F00043F7
:100760007B61D1E90435FC68042B5FD13A6E3A6EA7
:100770000B68C2F3846293FAA3F6C3F3846C6FF33D
:10078000DF43B6FA86F5002B2C464FF6FF7E08BFF6
:100790006446A242C0F2070E0CD13A6E22F000422B
:1007A0003A660A6802EA0E03C2F3846C92FAA2F275
:1007B000B2FA82F57A6E7A6E002BC2F384622C460E
:1007C00008BF6446A2420CD17A6E22F000427A66DB
:1007D0000A6802EA0E03C2F3846C92FAA2F2B2FA39
:1007E00082F5BA6EBA6E002BC2F384622C4608BF43
:1007F0006446A2420CD1BA6E22F00042BA660A6880
:1008000002EA0E03C2F3846C92FAA2F2B2FA82F503
:10081000FA6EFA6E002BC2F3846208BF6546AA42E4
:1008200031D1FA6E22F00042FA662CE0062202EA8A
:10083000940205FA02FC0E6807F1600555F82340A2
:100840004FF20002C0F2FF3206F0F846224046EABC
:100850000C06324342F0004245F823200A698B69B6
:1008600055F8226026F08076334345F822300A6935
:100870000B7F55F82260012B26F0007608BF06F1A9
:10088000007645F82260BA680D68D20750D1CA6870
:10089000D7F8B0602B466FF3DF4326EA030C4FF620
:1008A000FF7602F01804C0F20706E64000242E404E
:1008B000C4F27F0446EA0C06A242C7F8B06037D102
:1008C00093B195FAA5F2B2FA82F2013202F01E0358
:1008D000092B02F01F0310D801229A4003EB4303B7
:1008E00042EA035315E000BF012202EB956202F0D9
:1008F0001E030A2B02F01F03EED3012200269A40AA
:1009000003EB4303CFF6206606EB03531A4342F092
:100910000073C3F3406607EB86068A687569C3F304
:10092000045307249C40A5439A402A4372610D68F2
:100930000021C8F208010D4271D040F2001CC5F23E
:10094000000C4FF4C161674508BF4FF40271B7F165
:10095000A04F08BF4FF4027151F80C400022CCF2B6
:100960002132954204F0E07E04D01022C9F2C00288
:10097000954241D1220252D440F20062C5F20002F7
:10098000974202D0B7F1A04F49D15CF8012022F084
:10099000E07242EA0E0242F400024CF8012040F2FA
:1009A0000801C2F20001096842F663528909C0F2E7
:1009B0003E52A1FB0212910901EB41010C2202EB14
:1009C00081010091009951B300990139009100997A
:1009D00029B3009901390091009901B300990139B7
:1009E00000910099D9B1009901390091009900292D
:1009F0004FF00001E8D113E00022CCF25272954290
:100A000014D10022B2EB1E6F10D15CF8012022F04D
:100A1000E07242EA0E0242F080724CF8012000219E
:100A2000002280F85820084601B0F0BD0021CCF625
:100A300084318D424FF0000108BF14F48002EFD1E1
:100A4000B7F1A04F06D06745EAD0674502D00CF554
:100A5000C06101E00CF500718A6822F0E07242EAA0
:100A60000E0242F480028A60D9E7000010B540F619
:100A70000004C4F6000420464FF4005100F032FE9A
:100A800020464FF40051BDE8104000F02BBE00009E
:100A900070470000704700002DE9F04F81B040F230
:100AA00000480168C5F200080446A8F5407B4FF4F1
:100AB00042700E684D68594508BF6FF0F700B1F1FC
:100AC000A04F08BF6FF0F70050F80800B20700F021
:100AD0001F090FD515F002000CD0E06DC00603D43D
:100AE000E06D40F40060E0652046FFF73FFD2168BF
:100AF0000220086040F2001A7007C5F2000A02D511
:100B000015F0040004D1300756D515F0080053D075
:100B1000204650F85C2FD20603D4026842F40072DB
:100B20000260CA6812F4406F40D151450CD040F2C7
:100B30000052C5F2000291420A4617D142468A424B
:100B40000A4606D112E000BF4FF0A0428A420A4690
:100B50000CD0B9F1090F00F21D81012202FA09F24D
:100B600040F221231A420A4600F01481D26892040E
:100B70001CD40A68120719D58A6852070CD44A682F
:100B800022F00C024A60016821F480710160016862
:100B9000C90407D50AE000BFE06D40F01000E06531
:100BA00004F16000016841F0010101602046FFF797
:100BB0005DFF21680C200860B00602D515F020000A
:100BC00004D1700637D515F0400034D0204650F8D7
:100BD0005C2FD20603D4026842F400520260CB6C50
:100BE000CA6851450CD040F20057C5F20007B9421F
:100BF0000F4616D147468F420F4606D111E000BF7F
:100C00004FF0A0478F420F460BD0B9F1070F00F20B
:100C1000A980012707FA09F717F0C10F0F4600F066
:100C2000A180FF6813F4C07F76D02046FFF7A0FCB8
:100C300021686020086030060CD515F0800009D0CE
:100C4000E06D40F48030E065204600F0F5F9216861
:100C500080200860F0050DD515F480700AD0E06D95
:100C600040F40030E0652046FFF786FC21684FF431
:100C700080700860B0050DD515F400700AD0E06DE5
:100C800040F48020E0652046FFF778FC21684FF4AF
:100C900000700860F00625D515F0100022D0E06B3A
:100CA00090B1B9F1000F59D04FF44270594508BFC7
:100CB0006FF0F700B1F1A04F08BF6FF0F70058F8E0
:100CC000000010F4604F0BD0E06D40F48060E065F0
:100CD000206E40F0020020662046FFF7DBFE216810
:100CE00010200860700513D515F4806010D0E06DF9
:100CF0004FF4806240F48040E065206E40F00800D0
:100D0000206620460A6001B0BDE8F04FFFF732BC14
:100D100001B0BDE8F08F00BFBB0106D502F4406210
:100D200007F40053D2187FF480AF0A6852067FF5AB
:100D30007CAF17F400127FF478AF8A6812071DD4D5
:100D40004A6822F060024A60016821F48051016023
:100D50000168C9053FF569AF16E000BFC868C00764
:100D6000B2D1BDE7514521D040F20057C5F200078E
:100D7000B9420F4608BF474653E700BFE06D40F059
:100D80001000E06504F16000016841F001010160BC
:100D90004BE700BF51450DD040F20052C5F20002B2
:100DA00091420A4608BF4246E0E600BF4FF0A04726
:100DB00037E700BF4FF0A042D8E60000B0B582B0E0
:100DC0000446002001904CB1E06D58B1216888685C
:100DD000800012D48868C00019D54CE0012002B010
:100DE000B0BD00BF204600F029F90020206684F83D
:100DF0005800216888688000ECD588684FF6C0727A
:100E0000C5F6FF72104088608868C00033D44FF682
:100E1000C0728868C5F6FF7202F18052104000F17E
:100E20008050886040F20800C2F20000006842F67C
:100E300063528009C0F23E52A0FB020290090222D6
:100E400002EB400001900198A8B100BF0198013861
:100E50000190019878B1019801380190019850B142
:100E6000019801380190019828B10198013801904A
:100E700001980028EAD18868C00009D4E06D40F0EC
:100E80001000E065206E40F001002066012000E0C7
:100E900000208A68E36D02F0040203F01003D21808
:100EA000E26D40F0818022F481720232E2658A684C
:100EB000D20729D140F2001341F48072C5F2000339
:100EC00040F2080C9A42C5F2000C73D1DCF80030F5
:100ED000DCF800211A43D20716D10CF1F8024FF4C6
:100EE000E063D4F804E0914208BF4FF44073B1F1DD
:100EF000A04F08BF4FF440735CF8032022F47C122B
:100F000042EA0E024CF8032094F81DE0E36BD4E9AA
:100F100002C243EA4E331A4394F8243042EA0C02E8
:100F2000012B42EA034207D1D4F828C00023CFF6B0
:100F3000FE7303EB4C431A43E36A33B1D4F830C079
:100F400003F4787343EA0C031A43D1F80CC044F25B
:100F50000703CFF6F07303EA0C031A43CA600A6969
:100F6000636B22F040621A430A618A68120752D406
:100F700094F83820237F520042EA833CCB6844F245
:100F8000020223EA020242EA0C02CA6022690B69E9
:100F9000F2B143F480330B61D1F8C0C043F6FF7364
:100FA0002CEA03031A431BE042F010010120E16523
:100FB00002B0B0BDDCF800E4DCF80025DCF8003657
:100FC00042EA0E021A43D2073FF487AF9CE700BF04
:100FD00023F480320A61D1F8C02043F6FF739A43AC
:100FE000C1F8C02094F840300A69012B10D140F2BA
:100FF000FD7322EA030CD4E91132D4E913E543EA84
:101000000C031A4342EA0E022A4342F0010201E0B5
:1010100022F001020A6162690B6B012A23F00F02C0
:1010200002D1236A013B1A430A63E16D012262F394
:101030000101E16502B0B0BD704700002DE9F04349
:101040009BB004460020CDE9190001A804305021CE
:10105000FFF748F92068B0F1A04F03D01BB0BDE8FE
:10106000F08300BF4FF4004001904FF00050129009
:1010700001A801F0B3FA002818BFFFF771FA41F296
:101080004C00C4F20200016840F2004841F40051F3
:1010900001600168C4F6000801F400510091009954
:1010A000016816AE41F00401016001684FF00109CA
:1010B00001F00401009100990168032541F001014C
:1010C00001600168002701F00101009100990168A9
:1010D00041F0020101600068314600F0020000901A
:1010E000009808F58060CDF858901795189700F093
:1010F00029FA4FF090403146CDE91695189700F047
:1011000021FA4FF4804016A9A1C14046314600F0B3
:1011100019FA40F2E4050820C2F20005C4F2020008
:1011200005214FF4807385E8830005F114008022C7
:101130004FF480664FF0200C80E848102846C5E93F
:1011400003722F6200F0F4F8002818BFFFF708FAC6
:101150001220002100226565AC6201F065F91220C1
:1011600001F050F91BB0BDE8F08300002DE9F0411B
:10117000044640F200170068C5F200074FF4C1634F
:10118000B84208BF4FF40273B0F1A04F08BF4FF44C
:101190000273DB5986689046720704D40E4694F8B1
:1011A0005810012902D10220BDE8F08107F5A062A4
:1011B00003F01F050121904284F8581018BF002D3C
:1011C00016D12046FFF73AF9B0B92168E06D40F634
:1011D0000172904300F58070B942E06512D040F290
:1011E0000050C5F20000814212D107F540700BE0BB
:1011F000052DE6D0092DE4D0002084F85800012008
:10120000BDE8F0814FF0A040884218BF002D03D107
:10121000E06D20F48010E065E06D40F2B933C00469
:101220004FF0000044BF206E20F006002066606D85
:1012300040F23547C0F60003C0F6000740F21D45F6
:101240000022C0F60005C0E90B371C2345630B6084
:1012500084F858204A68434642F010024A60CA683F
:1012600042F00102CA604031324600F0F7F82168CE
:101270004FF6C0738A68C7F6FF731A4004328A605B
:10128000BDE8F081B0B5D0E910C30268DCF8001009
:1012900003F01F030424D2F800E09C400C4218BF66
:1012A0001EF0040522D102249C400C4218BF1EF0FF
:1012B000020529D1D940090724D51EF0080108BF2D
:1012C000B0BD116821F00E011160012101FA03F295
:1012D000CCF80420C16380F82510416B002280F80F
:1012E000242079B1BDE8B040084700BF11688906E5
:1012F00003D4116821F004011160CCF80440016BA3
:101300000029EFD1B0BD00BF1168890606D411686D
:1013100021F00A011160012180F82510CCF8044069
:10132000C16A0022002980F82420DBD1EAE700000E
:1013300000284FF0010100F08E802DE9F04740F2C7
:10134000000CC4F2020C03684FF6F8320CF5816E03
:10135000CBF6FD72734538BF02F580624CF6CD4482
:101360001A44CCF6CC44A2FB042803F0FC02A2F100
:101370000802A2FB04290CF580656FF00304D0E994
:101380000262D0F810A03CBF0025C4F2020504EAB6
:101390009804C0E91054022580F825501D6847F6CE
:1013A000F07725EA07073A43476942EA0A02856966
:1013B0003A43C7692A43056A3A432A4332431A60CB
:1013C0000CF50262734538BF0CF50062A3180CF5EA
:1013D0000862C264C9F3041240F6840C01FA02F2F6
:1013E000B6F5804FC4F2020C8364026506D1002179
:1013F00041601960CCF800201EE000BF41685FFA30
:1014000081FE013903294FF00001C3F800E0CCF858
:10141000002011D8AEF101020CEB820747F87C1FC7
:1014200002F01F01012202FA01F30CF1BC0239465D
:10143000CCF8C03002E000BF0022002300F1540CC1
:101440008CE80E0000210122C16380F8252080F87D
:101450002410BDE8F04708467047000090F824C00B
:10146000BCF1010F47D04FF0010C80F824C090F878
:1014700025C0BCF1010F3BD12DE9F0414FF0020C2A
:1014800080F825C04FF0000CC0F83CC0D0F800C078
:1014900000F14C0E9EE83040DCF80060BEF1000F19
:1014A00026F00106CCF8006065601CBFD0E9164547
:1014B0006560D0E91056012706F01F06846807FA18
:1014C00006F6D0F830806E60CCF804300B46102C55
:1014D00004BF13460A46CCF80830CCF80C20DCF8E0
:1014E0000010B8F1000F09D041F00E010EE000BF6E
:1014F000002180F824100220704700BF21F0040171
:10150000CCF80010DCF8001041F00A01CCF8001013
:10151000806C0168C90303D5016841F480710160E2
:10152000BEF1000F05D0DEF8000040F48070CEF868
:101530000000DCF8000040F00100CCF800000020C2
:10154000BDE8F0812DE9F04F82B00D68002D00F06C
:10155000C58000F13847860546EA972741F20046E4
:10156000C4F60006062240F2004EB04208BF052233
:10157000C4F2010E052F38BF3A464FF0000C01248B
:1015800000270026009209E00D68013635FA06F2C0
:1015900007F102070CF1040C00F0A08004FA06FB2E
:1015A00015EA0B08F0D0D1F804A003230AF00305D4
:1015B0006A1EBB40012A6FEA03090FD88268CB6814
:1015C00002EA0902BB401A4382604268CAF3001370
:1015D00022EA0B02B3401A43426003E0032D01D11B
:1015E00003251FE0C2688B6802EA0902BB401A4368
:1015F000022DC26016D16FF0030202EA56020244C5
:101600000CF01C050F23D2F820A003FA05FB0B6990
:101610002AEA0B0AAB4043EA0A031362D1F804A09A
:101620000AF00305026805FA07F302EA09021A4301
:101630001AF4403F0260A7D041F26003C4F20203F3
:101640001A684FF6084A42F001021A601A68CFF68B
:10165000FF7A02F001020192019A26F0030272441D
:1016600052F80A900CF00C050F23009CAB4029EABD
:10167000030304FA05F52B4342F80A30DEF808208C
:101680004B6842EA080540F20C49DC0258BF22EAE6
:101690000805CEF80850C4F20109D9F800209D02CF
:1016A00042EA080458BF22EA0804C9F80040DEF8FC
:1016B00004209D0342EA080458BF22EA0804CEF839
:1016C0000440DEF80020DB0342EA080458BF22EAA7
:1016D0000804CEF80040012456E700BF02B0BDE880
:1016E000F08F0000426902EA0103914341EA03419D
:1016F000816170471823002A08BF2823C150704712
:1017000040F28C20C2F200000068704790F8DD3093
:10171000022B03D14FF0020C6046704790F8DC308A
:101720004FF0020C012B01D16046704701237F2945
:1017300080F8DC3080F8DDC000F32C8001393F29CF
:1017400000F27E80DFE801F020347C3A7C7C7C4033
:101750007C7C7C7C7C7C7C467C7C7C7C7C7C7C7CFF
:101760007C7C7C7C7C7C7C547C7C7C7C7C7C7C7CE1
:101770007C7C7C7C7C7C7C7C7C7C7C7C7C7C7C7CA9
:101780007C7C7C7C7C7C7C5A0168D1F8003462F3E0
:10179000040324E0802937D0B1F5807F3AD0B1F539
:1017A000007F4DD10168D1F8043462F31C6336E048
:1017B0000168D1F8003462F38A1310E00168D1F8AF
:1017C000003462F310330AE00168D1F8003462F3A8
:1017D000964304E00168D1F8003462F31C63C1F859
:1017E000003490F8DD104FF0010C072920D19BE761
:1017F0000168D1F8043462F3040310E00168D1F801
:10180000043462F38A130AE00168D1F8043462F305
:10181000103304E00168D1F8043462F39643C1F850
:10182000043490F8DD104FF0010C07293FF47CAF31
:1018300080F8DDC04FF0000C80F8DCC060467047D7
:10184000072180F8DD10002180F8DC1090F8DD1011
:101850004FF0010C0729EBD166E7000090F8DD306E
:10186000022B03D102231846704700BF90F8DC30EA
:10187000012B4FF0020301D118467047B0B5012487
:1018800080F8DC4080F8DD3003687F29D3F880C31E
:10189000D3F8FCE300F352804C1E3F2C00F21E8173
:1018A000DFE814F0400070001C017C001C011C01EA
:1018B0001C0188001C011C011C011C011C011C01D5
:1018C0001C0194001C011C011C011C011C011C01B9
:1018D0001C011C011C011C011C011C011C011C0120
:1018E0001C01AE001C011C011C011C011C011C017F
:1018F0001C011C011C011C011C011C011C011C0100
:101900001C011C011C011C011C011C011C011C01EF
:101910001C011C011C011C011C011C011C011C01DF
:101920001C01C6005488526864F3124CC3F8BC23EF
:1019300090F8DD20072A40F0C180D9E0802900F02E
:101940008F80B1F5807F00F0A380B1F5007F40F07B
:10195000C5805488D3F8F85364F3165E25F0F84434
:10196000C3F8F8435268D3F8F84302F01F0244EA80
:101970008262C3F8F82390F8DD20072A40F09E80A9
:10198000B6E000BF5488526864F3D54CC3F8C02356
:1019900090F8DD20072A40F09180A9E05488526831
:1019A00064F3985CC3F8C42390F8DD20072A40F064
:1019B00085809DE05488526864F35B6CC3F8C8234B
:1019C00090F8DD20072A79D192E000BF4FEADE05CA
:1019D000B2F802E0D3F8F84365F3DF0E24F01F04F9
:1019E000C3F8F8435268D3F8F84302F01F022243C9
:1019F000C3F8F82390F8DD20072A5FD178E000BF14
:101A00005488D3F8F85364F3061E25F47874C3F8A9
:101A1000F8435268D3F8F84302F01F0244EA421236
:101A2000C3F8F82390F8DD20072A47D160E000BF13
:101A30005488D3F8F85364F30A2E25F4F844C3F815
:101A4000F8435268D3F8F84302F01F0244EA8222B6
:101A5000C3F8F82390F8DD20072A2FD148E000BF13
:101A60005488D3F8F85364F30E3E25F4F814C3F801
:101A7000F8435268D3F8F84302F01F0244EA0242E6
:101A8000C3F8F82390F8DD20072A17D130E000BF13
:101A90005488D3F8F85364F3124E25F07874C3F8E1
:101AA000F8435268D3F8F84302F01F0244EA425266
:101AB000C3F8F82390F8DD20072A19D00F298CBF2E
:101AC000C3F8FCE3C3F880C30121002380F8DD10D4
:101AD00080F8DC30BDE8B04018467047072280F837
:101AE000DD20002280F8DC2090F8DD20072AE5D1F7
:101AF0000123BDE8B04018467047000090F8DC2094
:101B0000012A4FF0020221D0012380F8DC3080F856
:101B1000DD2002684B1CD2F8CCC309D04CF0020384
:101B2000C2F8CC33D2F8CC3323F00C03194301E0D4
:101B30002CF00201C2F8CC13D2F8CC1341F0010111
:101B4000C2F8CC130121002280F8DD101046704746
:101B5000002804BF0120704710B582B0044602205F
:101B600084F8DD00207AC0074FF00000C4E9380097
:101B7000C4E93A00C4E93C00C4F8F8001FD020686A
:101B800046F60001C4F2010188420CD141F2600125
:101B9000C4F202010A6842F080620A60096801F03A
:101BA0008061019101990168D4E9042321F4704115
:101BB00002F44042114403F44052114401602046B3
:101BC00000F03EF8207A800706D52068E1680268B8
:101BD000090A61F309220260012084F8DD00002077
:101BE00084F8DC00C4F8D800C4E90600C4E90800A1
:101BF000A062C4E90C00C4E90E00C4E91000C4E905
:101C00001300C4E91500C4E91700C4E91A00C4E9C7
:101C10001C00C4E91E00C4E92100C4E92300C4E992
:101C20002500C4E92800C4E92A00C4E92C00C4E95D
:101C30002F00C4E93100C4E9330002B010BD000038
:101C4000006846F60001C4F20101884218BF7047DF
:101C500081B041F26000C4F20200016841F080618D
:101C60000160006800F080600090009801B070474B
:101C700070B50D460446FFF743FD2168D1F888236F
:101C8000D2031FD435B30646681C11D1D1F888039E
:101C9000C00317D4D1F88803C0035CBFD1F8880310
:101CA0005FEAC0300ED4D1F88803C003EED509E056
:101CB000FFF726FD801BA8420ED82068D0F88803C5
:101CC000C003F5D5012084F8DD00002084F8DC0095
:101CD00070BD00BFFFF714FD072084F8DD0003206E
:101CE00070BD000090F8DD30022B03D102231846AE
:101CF000704700BF90F8DC30012B4FF0020301D198
:101D00001846704780F8DD30036803EBC11C5CF8AF
:101D1000EC3FD90642BF910961F38F13CCF8003034
:101D20000121002380F8DD1080F8DC301846704770
:101D300090F8DD30022B4FF0020331D010B580F85F
:101D4000DD300368062911D11968D2E900CED2E945
:101D5000024221F01F0124F01804214311431960AD
:101D6000C3F814C0C3F818E014E000BF03EBC111BE
:101D7000D1F88030D2E900ECD2E9024223F01F030F
:101D800024F0180423431A43C1F88020C1F894E0DA
:101D9000C1F898C00121002380F8DD10BDE8104093
:101DA0001846704790F8DDC0BCF1020F04D14FF027
:101DB000020C6046704700BF90F8DCC0BCF1010F18
:101DC0004FF0020C02D16046704700BF10B54FF0D3
:101DD000010E062980F8DCE080F8DDC012D1511E2A
:101DE00007292DD80FF20402DFE801F004222A3679
:101DF0002A2A2A3E19680268D16190F8DD10072965
:101E000039D095E0A2F1010CBCF1070F54D80FF2C4
:101E10000602DFE80CF0053751595151516100BFFE
:101E200002681B6802EBC111C1F89C3075E000BF6D
:101E300019680268516290F8DD1007291BD077E01D
:101E4000072180F8DD10002180F8DC1090F8DD100B
:101E5000072910D06CE000BF19680268916290F801
:101E6000DD10072907D063E019680268D16290F895
:101E7000DD1007295CD14FF0010CBDE81040604631
:101E8000704700BFD0F800C0D3E900E40CEBC11CE0
:101E9000CCF8A4E0614651F8802F22F440520A6049
:101EA000DCB30A68B4F5405F42EA04020A6031D04C
:101EB000B4F5005F29D030E0072180F8DD10002163
:101EC00080F8DC1029E000BF02681B6802EBC1113A
:101ED000C1F8A83021E000BFD0F800C0D3E900422B
:101EE0000CEBC11CCCF8AC40614651F8804F24F497
:101EF00040440C608AB10C68B2F5405F44EA820449
:101F00000C6007D0B2F5005F07D19968CCF89C103F
:101F100003E000BF9968CCF8A81090F8DD100729FD
:101F200006D14FF0010CBDE810406046704700BF7D
:101F300001214FF0000C80F8DD1080F8DCC0BDE816
:101F4000104060467047000090F8DC20012A4FF0F6
:101F500002020BD080F8DD2002681368194311607B
:101F60000121002280F8DD1080F8DC201046704747
:101F7000B0B5044690F8DD00022804BF0220B0BDD1
:101F800094F8DC0001284FF0020008BFB0BD012525
:101F900084F8DC5084F8DD00204601F05FFA002070
:101FA00084F8DD5084F8DC00B0BD000090F8DC203F
:101FB000012A4FF002020DD080F8DD200268D2F82D
:101FC00094331943C2F894130121002280F8DD10E4
:101FD00080F8DC201046704790F8DD30022B04BFFB
:101FE0000220704790F8DC30012B4FF0020300F024
:101FF00034812DE9F04F8EB0012780F8DC7080F835
:10200000DD30D0F80090062909EBC11C62D0E6460D
:102010005EF8803F644623F07043CEF80030DEF86F
:10202000003054F8E85F23F020030B950D946446CC
:1020300054F8E46F0C94D9F8A0535469202C44EA66
:10204000030709D09469042C00F00A81032C00F0E6
:102050000B81022C40F00C8127F4D07303F1200790
:10206000D369D2E911A40093136AD2F82CB001937A
:10207000536A0493936A0593536B0693D2E90E83D4
:102080000A93136C0993936D089344F48053B3F54A
:10209000F05F136D079326F480734AEA030A02D1B6
:1020A000B8F1400F03D12AF4F05343EA040AD36C89
:1020B00005290393536D02934CD875A353F821302F
:1020C0002E46156B4C1C334005FA04F444EA030613
:1020D00041E000BFD9F80060D9F8A0E3556926F0C7
:1020E000E00625F0C004202D46EA040609D09569D3
:1020F000042D00F0C180032D00F0C280022D40F0BD
:10210000C38046F020064FF2FF35C3F2FF15D2E937
:1021100007472E4005F50065D2E909382C403443C5
:1021200027F06E452C4323F06843234328F0604496
:10213000D2F82CB0234343EA8B03546B23F00053B3
:102140002343146B2EF480372743C9F80030C9F8B5
:10215000A07350E02E464FF2FF33C0F2FF13009DF4
:1021600007EA030403F500632B402343019C049D0D
:10217000A4B223434FF6BF74C0F2006425402B4342
:10218000059D04F100642C4023434FF6BF7443EADD
:102190000B03CFF600642340069CB4F1005F4FF6BA
:1021A000FF74CFF6026408BF03F5003308EA0405A4
:1021B0002B43089D04F580242C402343079C234394
:1021C000CEF800304FF6C0730B9FC7F6FF733B404D
:1021D0000A9F07F03F073B44099F3B430D9F3B602D
:1021E000039F2AF480433B430C9F3B60029BCCF847
:1021F000D430C9F8A063C1EBC103D2E9007500EB8C
:102200008303D2E90246C3E9087517690629C3E9C1
:102210000A461F630AD843F67853C0F6000353F802
:102220002130D9F884733B43C9F8843306290BD095
:10223000BBF1000F08D1DCF88010D26D21F40071E1
:1022400041EA4221CCF880100121002380F8DD1002
:1022500080F8DC300EB0BDE8F04F1846704700BF84
:10226000022363F3C817FBE6012363F3C817F7E6FD
:1022700027F4D077F4E600BF46F0800643E700BFBE
:1022800046F040063FE700BF26F0E0063BE700BF10
:10229000FFFFFDFFFFFFFBFFFFFFF7FFFFFFEFFF6C
:1022A000FFFFDFFFFFFFBFFF90F8DD30022B04BF11
:1022B0000220704790F8DC30012B4FF0020341D030
:1022C0002DE9F04180F8DD30D0F800C04FF6EF7412
:1022D0000CEBC11E5EF8EC3FCFF6EC7492E86001A7
:1022E00023400134D76804EA0514234326F440341C
:1022F000234327F4003495692343012D43EA08035F
:1023000009D1D2E9042423F0060322F002021A4381
:10231000224342F001030629CEF800300AD843F6E2
:102320007852C0F6000252F82110DCF884231143E1
:10233000CCF884130121002380F8DD1080F8DC3014
:10234000BDE8F0411846704740F2000040F28C2191
:10235000C2F20000C2F2000140680A68104408603E
:102360007047000080B5032000F08AF80F2000F0CD
:1023700009F800281CBF012080BD00F029F80020CA
:1023800080BD000070B540F20006C2F20006716820
:10239000E1B1044640F20800C2F200004FF47A7244
:1023A0000068B2FBF1F1B0FBF1F000F073FE0F2C0E
:1023B0004FF0010508D838B94FF0FF302146002210
:1023C000002500F031F83460284670BD012070BD52
:1023D00082B041F25800C4F20200816841F001016C
:1023E0008160816801F0010101910199016841F06A
:1023F00080510160006800F080500090009802B0A9
:1024000000F0E2B8002848BF704700F01F01012229
:1024100002FA01F11C2202EAD0004EF20012CEF2C2
:10242000000281507047000010B54EF60C5CCEF2F1
:10243000000CDCF80030C3F3022E8EF00704042CED
:1024400028BF0424BEF103034FF0FF3E0EFA04F44C
:1024500038BF0023A14399400EFA03F39A43114376
:1024600000F00F0200F160430901043A03F56443F0
:102470006244002848BF02F10C03197010BD00002F
:102480004EF60C51CEF200010A684FF6FF031A40D7
:1024900060F30A2242F0806040F0FD7008607047EF
:1024A000B0F5007F42D0002840F0808047F2140051
:1024B000C4F2000050F8141CC26E01F4C06122F492
:1024C0008072B1F5806FC2662ED150F8141C0122C3
:1024D00062F34A2140F8141C40F20801C2F20001E4
:1024E0000968322251434DF68362C4F21B32A1FBCC
:1024F0000212910C0268520511D54A1C0FD00268D5
:1025000052050CD559B10268520508D5012906D0EB
:102510000268520503D50229A1F10401EAD100683D
:10252000400544BF032070470020704747F2140065
:10253000C4F2000050F8141CC26E01F4C06142F4F1
:102540008072B1F5806FC266EED150F8141C012282
:1025500062F34A2140F8141C40F20801C2F2000163
:102560000968322251434DF68362C4F21B32A1FB4B
:102570000212910C0268520511D54A1C0FD0026854
:1025800052050CD559B10268520508D5012906D06B
:102590000268520503D50229A1F10401EAD10068BD
:1025A000400544BF03207047BEE700BF47F2140058
:1025B000C4F2000050F8141C022262F34A2140F8D1
:1025C000141C00207047000047F20800C4F200000D
:1025D000016841F480410160704700002DE9F0413D
:1025E00082B00446807841F288060007C4F20206F1
:1025F00002D400202FE000BF56F8300C5FEAC0087C
:102600000BD456F8300C40F0805046F8300C56F899
:10261000300C00F080500190019847F20007C4F29E
:102620000007386840F480703860FFF769F80546A5
:102630003868C00500F10C81FFF762F8401B0228E2
:10264000F6D90320B8F1000F05D456F8301C21F05C
:10265000805146F8301C2168CA0717D18A071DD45B
:102660004A0723D40A0729D4CA062FD48A0635D4A8
:102670004A063BD40A0641D4CA0547D48A034DD43E
:102680008A0553D44A0559D467E000BF32686368AD
:1026900022F003021A4332608A07E1D53268A36848
:1026A00022F00C021A4332604A07DBD53268E36835
:1026B00022F030021A4332600A07D5D53268236906
:1026C00022F0C0021A433260CA06CFD5326863696D
:1026D00022F440721A4332608A06C9D53268A3696F
:1026E00022F440621A4332604A06C3D53268E36975
:1026F00022F440521A4332600A06BDD53268236A7A
:1027000022F440421A433260CA05B7D53268636A80
:1027100022F440321A4332608A03B1D57269A36A47
:1027200022F003021A4372618A05ABD53268E36A6C
:1027300022F440221A4332604A050ED53268236BD8
:1027400022F440121A43B3F5801F326005D156F8C7
:102750007C2C42F4801246F87C2C0A050ED5326897
:10276000636B22F440021A43B3F5800F326005D147
:1027700056F87C2C42F4801246F87C2CCA040ED504
:102780003268A36B22F040721A43B3F1807F32604B
:1027900005D156F87C2C42F4801246F87C2C8A0431
:1027A0000ED53268E36B22F040621A43B3F1006F3A
:1027B000326005D156F87C2C42F4801246F87C2C0D
:1027C0004A040ED53268236C22F040621A43B3F1FA
:1027D000006F326005D156F87C2C42F4801246F826
:1027E0007C2C0A040ED53268636C22F040521A43E6
:1027F000B3F1805F326005D156F87C2C42F4803210
:1028000046F87C2CCA030ED53268A36C22F04042F5
:102810001A43B3F1804F326005D156F87C2C42F454
:10282000803246F87C2C49030ED57169E26C21F4A4
:1028300040111143B2F5001F716105D156F87C1C9F
:1028400041F4801146F87C1C02B0BDE8F08100BF65
:10285000B06810F4407010D0216D88420BD0B06881
:10286000B16820F4407041F48031B160B16821F466
:102870008031B160B060C0070CD1B068216D20F428
:1028800040700843B0600020B8F1000F3FF5E3AEA0
:10289000DBE600BFFEF734FF054641F2883700BF94
:1028A000B0688007E9D4FEF72BFF401BB842F7D988
:1028B000C7E600002DE9F047002865D042F2000A83
:1028C000C4F2020A0446DAF800000D4600F00F00D8
:1028D00088420CD2DAF8000020F00F002843CAF832
:1028E0000000DAF8000000F00F00A8424CD1216887
:1028F00041F20808C807C4F2020803D1880740F172
:10290000D480B9E0606802283AD0032840D158F852
:10291000082C920138D5D8F80420D8F8043042F2B7
:102920000046C3F3031302F00302D8F80470013326
:10293000C0F2F406032A04BF41F20026C0F27A0670
:10294000B6FBF3F2D8F80430C7F306277A43C3F393
:102950004163022707EB4303B2FBF3F24BF2004360
:10296000C0F2C4439A425DD9D8F8002012F0F00FAB
:102970004DD0890756D5A168002953D147E000BF43
:1029800058F8081C890307D40120BDE8F08700BF70
:1029900058F8081C4905F7D5D8F8001001F00C01CB
:1029A00004293FD0D8F8001001F00C01082939D0D3
:1029B000D8F8001001F00C010C2933D1D8F804101C
:1029C000D8F8042042F20047C2F3031201F00301D9
:1029D000D8F804300132C0F2F407032904BF41F2F1
:1029E0000027C0F27A07B7FBF2F1D8F80420C3F34E
:1029F00006235943C2F34162022303EB4202B1FBB7
:102A0000F2F14BF20042C0F2C44291420AD9D8F826
:102A10000010082262F307114FF00109C8F80010F6
:102A200002E000BF4FF00009D8F8001021F00301C8
:102A30000843C8F80000FEF763FE064641F28837F7
:102A4000D8F80000616800F00C00B0EB810F07D0EF
:102A5000FEF756FE801BB842F2D90320BDE8F0878E
:102A60002168880708D4B9F1000F1ED0D8F80000FB
:102A700020F0F00017E000BF480705D5D8F80000A7
:102A800040F4E060C8F80000080706D5D8F8000058
:102A9000072262F30D20C8F80000D8F80000A268F1
:102AA00020F0F0001043C8F80000DAF8000000F051
:102AB0000F00A8421BD9DAF8000020F00F002843CD
:102AC000CAF80000FEF71CFE064641F2883700BF38
:102AD000DAF8000000F00F00A84207D0FEF710FE61
:102AE000801BB842F4D90320BDE8F087216848076D
:102AF00007D5D8F80000E26820F4E0601043C8F879
:102B00000000080708D5D8F80000216920F46050BB
:102B100040EAC100C8F80000D8F8000042F20041C5
:102B2000C0F2F40100F00C00042808462DD0D8F8BB
:102B3000000000F00C00082841F20020C0F27A00EA
:102B400023D0D8F8002002F00C020C2A1CD1D8F8AF
:102B50000420D8F8043002F00302C3F30313D8F8BA
:102B600004700133032A08BF0146B1FBF3F0D8F823
:102B70000410C7F30627C1F341610222784302EB38
:102B80004101B0FBF1F000E00020D8F8001043F65E
:102B90009452C1F30311C0F60002515C40F20802E6
:102BA00001F01F0120FA01F140F20000C2F2000022
:102BB0000068C2F200021160BDE8F047FFF7E2BB17
:102BC000002804BF012070472DE9F04182B004467F
:102BD000007841F20006C007C4F202061ED1207838
:102BE00080073DD42078000764D42078400700F1A6
:102BF00087802078800600F1D980E569002D00F0FB
:102C00004482B06800F00C000C2840F03181012DA6
:102C100040F09081012002B0BDE8F081B06800F082
:102C20000C01F068082961D0032281F00C0122EA2E
:102C300000000844B0FA80F0400957D16068B0F550
:102C4000803F07D0B0F5A02F40F0E480306840F41A
:102C500080203060306840F480303060E5E000BFB4
:102C6000B068F16800F00C00042871D001F0030195
:102C700080F00C0081F002010844B0FA80F04009B5
:102C800066D1E1683068002900F0E08040F480708F
:102C90003060FEF735FD05463068400500F10A81D9
:102CA000FEF72EFD401B0228F6D9032002B0BDE836
:102CB000F08100BF6169D6F89400002900F094808B
:102CC00040F00100C6F89400FEF71AFD054600BF6B
:102CD000D6F8940080073FF588AFFEF711FD401B42
:102CE0000228F5D9032002B0BDE8F08130688003E6
:102CF0007FF575AF606800287FF471AF3EE000BFDC
:102D0000B06D5FEAC00808D4B06D40F08050B06587
:102D1000B06D00F080500190019847F20007C4F2B6
:102D200000073868C0052DD4386840F480703860DA
:102D3000FEF7E6FC054600BF3868C00522D4FEF762
:102D4000DFFC401B0228F7D9032002B0BDE8F08168
:102D50003068400501D5E06880B17068216920F0D5
:102D6000FE4040EA0160706040F20000C2F20000E4
:102D70000068FFF707FB00283FF434AF012002B0E2
:102D8000BDE8F081A068012808D0052840F0B08097
:102D9000D6F8900040F00400C6F89000D6F89000F5
:102DA00040F00100C6F89000B0E000BFA169D6F87D
:102DB0009800002900F0868040F00100C6F89800D5
:102DC000FEF79EFC054600BFD6F8980080073FF549
:102DD00014AFFEF795FC401B02284FF00300F3D917
:102DE00002B0BDE8F08100BF20F00100C6F89400F9
:102DF000FEF786FC054600BFD6F8940080077FF5F5
:102E0000F4AEFEF77DFC401B0228F5D9032002B08A
:102E1000BDE8F0813168002821F4803131603168EB
:102E200021F48021316000F0BF80FEF769FC054687
:102E3000306880033FF5D3AEFEF762FC401B642888
:102E4000F6D9032002B0BDE8F08100BF20F4807005
:102E50003060FEF755FC0546306840057FF5C2AE90
:102E6000FEF74EFC401B02284FF00300F4D9B7E7F1
:102E7000306820F080703060FEF742FC022D05467D
:102E80000CD100BF3068800140F1BA80FEF738FCF9
:102E9000401B02284FF00300F4D9A1E730688001FD
:102EA00040F1EC80FEF72CFC401B02284FF00300A1
:102EB000F4D995E77068216920F0FE4040EA01608E
:102EC00070608FE620F00100C6F89800FEF718FC4D
:102ED000054600BFD6F8980080077FF58EAEFEF756
:102EE0000FFC401B02284FF00300F3D978E700BF26
:102EF000D6F89010002821F00101C6F89010D6F8FD
:102F0000901021F00401C6F890105DD0FEF7F8FB98
:102F1000054641F2883700BFD6F89000800765D497
:102F2000FEF7EEFB401BB842F6D9032002B0BDE825
:102F3000F08100BFF068216A00F003028A427FF44A
:102F40001DAF626A6FF00F0300F0F00103EB021295
:102F500091427FF413AFA16A00F4FE42B2EB012F5D
:102F60007FF40CAFE16A00F07842B2EBC16F7FF4FE
:102F700005AF226B0023CFF6E07303EA025200F4A0
:102F8000C001A2F5001291427FF4F8AE616B4FF0E0
:102F90007E4202EA016100F0C06001F17E41884298
:102FA0007FF4ECAE71E000BFFEF7AAFB054600BF60
:102FB000306880037FF513AEFEF7A2FB401B642848
:102FC0004FF00300F4D90BE7FEF79AFB054641F2F8
:102FD000883700BFD6F89000800707D5FEF790FB32
:102FE000401BB8424FF00300F4D9F9E6B8F1000FE6
:102FF0003FF5FFADB06D20F08050B065F9E500BF42
:10300000F06848F20C01C0F29F1104F1200700EAB9
:10301000010C8ECF6FF00F00D4E90C5400EB0210BE
:103020000022CFF6E07241EA0C0102EA05520843A1
:10303000A2F500124FF07E4540EA032005EA046540
:10304000104305F17E4540EAC7602843F0603068D0
:1030500040F080703060F06840F08070F060FEF703
:103060004FFB0446306880010FD4FEF749FB001B7C
:1030700002284FF00300F5D9B2E600BFF0684FF622
:10308000FC71CFF6EE610840F060002002B0BDE8B0
:10309000F0810000411E0020B0EB116F1CBF012029
:1030A00070474EF21002CEF2000251604EF62351EC
:1030B000CEF20001F0230B70072190601160704781
:1030C00090F83C20012A4FF0020268D070B580F8D9
:1030D0003D20026842F600435468D2F808C0C4F2AA
:1030E000010345F2000E9A42C4F2010E18BF724568
:1030F0002CD14D6824F470042C434FF68F75CFF615
:10310000FF550E682C4042F6FF35C4F201053443EA
:10311000AA4254600EDC40F2FF73C4F200039A42EC
:103120001CDCB2F1804F2DD040F20043C4F200030A
:1031300026E000BF43F6FF74C4F20104A24219DC8A
:103140009A421FD043F2004318E000BF43F200450B
:10315000C4F20105AA42CCD0CFE700BF40F600037D
:10316000C4F200039A420DD040F60043C4F20003BB
:1031700006E000BF724505D044F20003C4F201032B
:103180009A4204D189682CF080031943916001218F
:10319000002280F83D1080F83C20BDE870401046C9
:1031A00070470000002804BF0120704710B5044696
:1031B00090F83D0028B9002084F83C00204600F03B
:1031C00023F8022084F83D002068211D00F0A0FCB7
:1031D000012084F8480084F83E0084F83F0084F819
:1031E000400084F8410084F8420084F8430084F8E9
:1031F000440084F8450084F8460084F8470084F8C9
:103200003D00002010BD0000006842F60041C4F2FD
:103210000101884218BF704781B041F26000C4F2DA
:103220000200016841F400610160006800F4006080
:103230000090009801B0704790F83C20012A4FF0B0
:10324000020200F09B8080B580F83D20D0F800C0DD
:103250008822DCF80830CFF6CE721A40CCF808206D
:103260000B68B3F5005F0DDA3F2B21DD5F2B33DDFB
:10327000602B00F08580702B00F0A480B3F5805F98
:1032800073D0E9E02F22C0F21002934218DD4F21E3
:10329000C0F210018B4247DD5021C0F210018B4279
:1032A00057D06021C0F210018B4252D070214BE008
:1032B0001F2B41DC002B4CD0102B4AD0CCE000BFA0
:1032C000B3F1101F3EDAB3F5005F00F08F80B3F565
:1032D000801F3ED0C0E000BF402B00F09B80502BF1
:1032E00040F0BA80D1F804E0C968DCF82030DCF89E
:1032F000202022F00102CCF82020DCF8182022F057
:10330000F00242EA011123F00A0242EA0E02CCF86E
:103310001810CCF82020DCF808104FF68872CFF691
:10332000CF72114057311EE03021C0F210018B42A4
:103330000FD0402108E000BF202B0AD0302B08D04E
:103340008AE000BF05D02021C0F210018B4240F07E
:103350008380DCF808104FF68872CFF6CF721140E8
:10336000194341F00701CCF808100022012180F830
:103370003D10002180F83C10BDE8804010467047A9
:10338000D1F804E0C968DCF82030DCF8202022F015
:103390001002CCF82020DCF8182022F4704242EA17
:1033A000013123F0A00242EA0E12CCF81810CCF83A
:1033B0002020DCF808104FF68872CFF6CF7211404B
:1033C0006731D0E7D1E901E3C968DCF8082043EAB6
:1033D0000E0322F47F4243EA01211143CCF8081086
:1033E000DCF8081041F07701BDE700BFD1E901E347
:1033F000C968DCF8082043EA0E0322F47F4243EA5E
:1034000001211143CCF80810DCF8081041F4804188
:10341000A9E700BFD1F804E0C968DCF82030DCF887
:10342000202022F00102CCF82020DCF8182022F025
:10343000F00242EA011123F00A0242EA0E02CCF83D
:103440001810CCF82020DCF808104FF68872CFF660
:10345000CF721140473186E7012287E72DE9F0411D
:1034600000687F2A00EBC114A04658F8E4EF4FF043
:10347000000158F82CCC00F32F80013A3F2A00F2CB
:103480004480DFE802F0213B42214242423B42427B
:10349000424242424221424242424242424242422D
:1034A00042424242423B4242424242424242424203
:1034B00042424242424242424242424242424242EC
:1034C00042424242422100BFD3E90112C4F8BC107B
:1034D000C4F8C020002118E0B2F5007F08DB0DD051
:1034E000B2F5006F0AD0B2F5806FEDD00DE000BFED
:1034F000802A03D0B2F5807FE6D006E0D3E901123E
:10350000C4F8C4101021C4F8C820D3E90506D3E9D3
:10351000034730431D683843FE2220438A40284336
:103520002EEA02028840082F42EA000205D11CF46C
:10353000007008BF1CF0007004D0C8F80020BDE87F
:10354000F08100BFD86988400243C8F80020BDE878
:10355000F0810000FEE7000010B58CB040F278006A
:10356000C2F200004FF0A04100244FF4403280E846
:103570001600032101234FF0040C01624FF4D461C3
:103580004FF480620B94CDE90944CDE90744CDE9BD
:103590000544CDE90344CDE90144C0E90344C0E951
:1035A000053C848380F82440C0E90B1280F8383051
:1035B000C46380F84040FDF701FC002818BFFCF709
:1035C000CFFF40F27800C2F2000009A90994FCF78D
:1035D000D7FF002818BFFCF7C3FF0220C0F230401D
:1035E00001900620029004207F210390CDE9041071
:1035F0000020069040F27800C2F2000001A9FDF719
:1036000059F8002818BFFCF7ABFF2020C1F2F040AA
:1036100001900C20029040F27800C2F2000001A953
:10362000FDF748F8002818BFFCF79AFF4020C1F6C4
:10363000201001901220029040F27800C2F20000A7
:1036400001A9FDF737F8002818BFFCF789FF0CB077
:1036500010BD000080B582B041F24800C4F2020003
:103660000168002241F004010160016801F00401D9
:1036700001910199016841F0010101600068002198
:1036800000F00100009000980B20FEF7CDFE0B200B
:1036900002B0BDE88040FEF7B5BE000070B586B050
:1036A000002541F24C000595C4F20200016840F685
:1036B000000441F0040101600168C4F6000401F057
:1036C0000401009100990168002241F0200101608D
:1036D00001684FF4005601F0200100910099016843
:1036E00041F001010160016801F0010100910099C0
:1036F000016841F00201016000684FF4005100F0E0
:103700000200009000982046FDF7F4FF0120CDE96B
:10371000020501A9204601960495FDF713FF06B0A6
:1037200070BD0000B0B5B6B046F60005002412A882
:103730006021C4F20105CDE92E44CDE92C44CDE948
:103740002A44FCF7CFFD40F24410C2F200000221EF
:103750004FF40072CDE91044CDE90E44CDE90C449C
:10376000CDE90A44CDE90844CDE90644CDE9044455
:10377000CDE90244CDE90044C0E90054C0E9021299
:10378000FEF7E6F9002818BFFCF7EAFE40F2441005
:10379000C2F200000C21FEF7B1F9002818BFFCF7B7
:1037A000DFFE40F24410C2F200000A21FEF760FA88
:1037B000002818BFFCF7D4FE4FF480302E904FF451
:1037C00000602F9040F24410C2F200002EAA0121A6
:1037D000FEF744F8002818BFFCF7C2FE40F2441080
:1037E000C2F20000012100220024FDF78FFF002813
:1037F00018BFFCF7B5FE4CF25030CDE92A04022088
:103800002C9008202D9040F24410C2F200002AAA09
:103810000621FEF78DFA002818BFFCF7A1FE002054
:1038200001244FF00061CDE91400CDE91200CDE98B
:103830001640CDE91800CDE91A00CDE91C10CDE9FC
:103840001E00299040F24410C2F2000012AA062184
:10385000FEF7C2FB002818BFFCF782FE40F24410BE
:10386000C2F200002AAA00212C940024FEF760FA7C
:10387000002818BFFCF774FE01200B9040F24410A2
:10388000C2F200000BAA0021CDE90D441194FEF70D
:103890000BFD002818BFFCF763FE40F24410C2F293
:1038A0000000002100220024FEF71CFA002818BFA7
:1038B000FCF756FE4FF00050CDE91F041020CDE973
:1038C000270440F24410C2F2000012AA0021CDE900
:1038D00012442694CDE92144CDE92344FEF77CFB34
:1038E000002818BFFCF73CFE40F24410C2F2000072
:1038F00012AA0121FEF770FB002818BFFCF730FE6A
:1039000044F62060089040F24410C2F2000008AB78
:1039100000210122FEF746FA002818BFFCF720FE1E
:103920004CF25030089040F24410C2F2000008AB54
:10393000002104220024FEF735FA002818BFFCF706
:103940000FFE0820CDE9010040F24410C2F2000051
:103950006B46002101220094CDE90344CDE90544E2
:103960000794FEF705FB002818BFFCF7F9FD40F2AD
:103970004410C2F200006B4601210422FEF7F8FA5F
:10398000002818BFFCF7ECFD40F24410C2F2000022
:103990006B4600210222FEF7EBFA002818BFFCF765
:1039A000DFFD40F24410C2F200006B460121082204
:1039B000FEF7DEFA002818BFFCF7D2FD40F24410F3
:1039C000C2F200002AAA0121FEF7B2F9002818BFAE
:1039D000FCF7C6FD40F24410C2F200000BAA012120
:1039E000FEF762FC002818BFFCF7BAFD40F2441055
:1039F000C2F2000001210022FEF774F9002818BF6E
:103A0000FCF7AEFD40F2441444F62060C2F200041C
:103A1000089008AB204601210122FEF7C3F90028D7
:103A200018BFFCF79DFD2068A84201D036B0B0BD9C
:103A300041F24C00C4F20200016841F00101016052
:103A4000006831A900F00100319031984FF47060A6
:103A500031900220329000203390032034900D20CA
:103A600035904FF09040FDF76DFD36B0B0BD0000D1
:103A700080B588B040F2402042F600420021C2F2F8
:103A80000000C4F201024FF6FF730791CDE9051162
:103A9000C0E90021C0E90213C0E904118161FFF708
:103AA00081FB002818BFFCF75BFD4FF480500490A9
:103AB00040F24020C2F2000004A9FFF7BDFB00283D
:103AC00018BFFCF74DFD0020CDE90100039040F246
:103AD0004020C2F2000001A9FFF7F2FA002818BF47
:103AE000FCF73EFD08B080BDFEE70000FEE70000E9
:103AF0007047000070470000FEF726BC4EF6885065
:103B0000CEF20000016841F47001016070470000CE
:103B100040F6FF330268C4F2000343F2FF3C9842D0
:103B2000C4F2010C0ADD60452EDC40F60043C4F20D
:103B30000003984234D042F600432DE0B0F1804FAC
:103B40002ED040F20043C4F20003984228D040F641
:103B50000003C4F20003984222D0604526DC40F204
:103B6000FF73C4F20003984236DD40F60003C4F24E
:103B70000003984244D040F60043C4F20003984248
:103B80003ED042F6004337E045F20003C4F20103A1
:103B9000984205D043F20043C4F201039842DCD1BD
:103BA0004B6822F070021A436045D8DD44F2FF33BF
:103BB000C4F20103984217DD44F20043C4F201034A
:103BC00098421DD045F20003C4F20103984217D079
:103BD00044F6000310E000BFB0F1804F10D040F277
:103BE0000043C4F2000309E043F20043C4F20103BE
:103BF000984205D044F20003C4F20103984203D175
:103C0000CB6822F440721A4380B54B6922F0800ED3
:103C10008A6843EA0E03D1F800C00360C262A0F1D3
:103C20008042A2F59632830543EA9222092AC0F81F
:103C300028C0BDE8804008D8012303FA02F240F210
:103C4000E5231A421CBF0969016301214161016931
:103C5000C90708BF7047016921F001010161704780
:103C6000FEE7000094B0FEF77DFB002400200C94DA
:103C7000CDE90A44CDE90844FEF712FC0120069084
:103C80004FF4803007900220032555210D90CDE997
:103C90000E50CDE91010CDE9120006A8FEF790FFF6
:103CA00020B1EFF3108072B6FEE700BF0F20CDE920
:103CB00001054FF48060059001A80421CDE903447B
:103CC000FEF7F8FD20B1EFF3108072B6FEE700BFFB
:103CD000FFF7E4FCFFF7BEFCFFF73EFCFFF722FD19
:103CE000FFF7C6FE00F004F800F038F8FCE700002B
:103CF00010B540F24414C2F2000420464FF4803163
:103D0000FEF722F920464FF40031FEF71DF9204658
:103D10004FF48021FEF718F920460121FEF746F9FD
:103D200020460221FEF742F920460421FEF73EF923
:103D300020460821FEF73AF940F2780040F270017F
:103D4000C2F20000C2F200010322FDF70FFA206860
:103D500042F21071C0F89C1010BD00007047F1EEE7
:103D6000100A4FF6FF71C0F2C03120EA010040F0A6
:103D70004070E1EE100A70470200000004000000ED
:103D800008000000100000002000000040000000BB
:103D90000100000000000000000000000102030418
:103DA00006070809C83D00080000002010000000B8
:103DB0003C020008D83D00081000002080080000E8
:103DC0005C0200080000000010000000010000007C
:083DD0000024F40000000000D3
:04000005080001D915
:00000001FF
